:020000040800F2
:1000000028040120E1010008E9010008EB010008D3
:10001000ED010008EF010008F101000800000000F8
:10002000000000000000000000000000F3010008D4
:10003000F501000800000000F7010008F9010008C0
:10004000FB010008FB010008FB010008FB010008A0
:10005000FB010008FB010008FB010008FB01000890
:10006000FB010008FB010008FB010008FB01000880
:10007000FB010008FB010008FB010008FB01000870
:10008000FB010008FB010008FB010008FB01000860
:10009000FB010008FB010008FB010008FB01000850
:1000A000FB010008FB010008FB010008FB01000840
:1000B000FB010008FB010008FB010008FB01000830
:1000C000FB010008FB010008FB010008FB01000820
:1000D000FB010008FB010008FB010008FB01000810
:1000E000FB010008FB010008FB010008FB01000800
:1000F000FB010008FB010008FB010008FB010008F0
:10010000FB010008FB010008FB010008FB010008DF
:1001100039070008FB010008FB010008FB0100088B
:10012000FB010008FB010008FB010008FB010008BF
:10013000FB010008FB010008FB010008FB010008AF
:10014000FB010008FB010008FB010008FB0100089F
:10015000FB010008FB010008FB010008FB0100088F
:10016000FB010008FB010008FB010008FB0100087F
:10017000FB010008FB010008FB0100080000000073
:10018000FB010008FB010008FB010008FB0100085F
:10019000FB010008FB010008FB010008FB0100084F
:1001A000FB010008FB010008FB010008FB0100083F
:1001B000FB010008FB010008FB010008FB0100082F
:1001C000FB010008FB010008DFF810D000F094FAF2
:1001D000004800472D090008AFF3008028040120E3
:1001E0000648804706480047FEE7FEE7FEE7FEE7D1
:1001F000FEE7FEE7FEE7FEE7FEE7FEE71D07000875
:10020000C9010008202A04DB203A00FA02F100208C
:1002100070479140C2F1200320FA03F31943904044
:100220007047202A06DBCB17203A41FA02F043EA56
:10023000E07306E041FA02F3D040C2F1200291409F
:100240000843194670472DE9FE4F804681EA0300B6
:10025000C00F0C46009021F0004123F00045B8EBA0
:100260000200A94105D24046214690461C460B4655
:10027000024623F00040104347D0270DC7F30A0081
:10028000C3F30A510290401A019040286BDAC3F37D
:10029000130040F4801B0098924620B10023D2EB5B
:1002A000030A63EB0B0B01985946C0F1400250461C
:1002B000FFF7A8FF06460D4650465946019AFFF73C
:1002C000B0FF10EB08006141002487EA115284EA74
:1002D000E7731A4340D0009A62B3019A012A4FEAA9
:1002E000075215DC001B61EB02014FF0004202EAED
:1002F0000752CDE90042001C41F5801132462B46E1
:1003000000F0ACF903B0BDE8F08F40462146F9E7B4
:10031000001B61EB0201001C41F5801300185B41DA
:100320002018A2F5001747EB030140EAD570B61973
:100330006D4111E06D084FEA360645EAC0754FEA97
:100340000752001B61EB0201001C41F580114908B6
:100350004FEA30000019514132462B4603B0BDE848
:10036000F04F00F06CB90098012240000023D0EB60
:10037000020263EBE073009821464FEAE074B8EBA9
:10038000000061EB0401E9E783F000435BE781F0E3
:10039000004158E72DE9FE4F81EA030404F00044D0
:1003A00021F0004100944FF0000B23F0004350EA8D
:1003B00001045ED052EA03045BD0C3F30A54C1F3D4
:1003C0000A552C44A4F2F3340194A0FB0254C1F367
:1003D000130141F48011C3F3130343F4801301FBB1
:1003E000024400FB034E840A970A44EA815447EA18
:1003F0008357A4FB076802958D0A05FB07854FEA22
:10040000932C04FB0C542705029D4FEA065847EA3B
:100410001637B5EB08056EEB070C870E920E47EA10
:10042000811742EA8312A7FB0201B6EB0B0164EBD2
:1004300000042B0D43EA0C335E1844EB1C50DA46E3
:100440005146E7FB0201C5F313044FEA0B3343EABD
:1004500014534FEA0432019C43EA0603A4F10C044E
:100460000294009CCDE900B400F0F8F803B0BDE8B8
:10047000F08F00200146F9E72DE9F04D81EA0304F1
:1004800004F0004B21F0004514464FF0000A23F021
:10049000004150EA050220D054EA01021DD0C5F304
:1004A0000A570246C5F31303C1F31300C1F30A56FA
:1004B00040F4801543F48013A7EB0608101BD646C2
:1004C00008F2FD3873EB050002D308F1010801E0E2
:1004D00092185B41B8F1000F03DA00200146BDE835
:1004E000F08D00204FF48011064684460EE0171B65
:1004F00073EB050705D3121B63EB050306434CEAB8
:10050000010C49084FEA300092185B4150EA01079C
:10051000EDD152EA030012D082EA040083EA050119
:10052000084305D0101BAB4106D20122002306E090
:1005300000224FF0004302E06FF0010253101AEB6B
:1005400006004CEB085110EB0A0041EB0B01BDE833
:10055000F04D00F074B80EB5C10F80EAE0700844A9
:10056000CA07002140F233438DE80E000A460B46CD
:1005700000F074F803B000BD01F0004330B421F086
:10058000004150EA010206D00A0DA2F56072C1F3E3
:100590001301002A02DC30BC00207047440F44EAFB
:1005A000C104C100E01830BC00EBC25000F010B82C
:1005B000202A04DB203A21FA02F00021704721FAB8
:1005C00002F3D040C2F1200291400843194670471F
:1005D0000029A8BF7047401C490008BF20F0010057
:1005E000704710B4B0FA80FC00FA0CF050EA010435
:1005F00004BF10BC704749B1CCF1200421FA04F4C7
:1006000011FA0CF118BF012121430843A3EB0C019F
:10061000CB1D4FEA00614FEA102042BF002010BC02
:10062000704700EBC35010440029A4BF10BC7047B2
:10063000401C490008BF20F0010010BC704710B5F5
:10064000141E73F1000408DA401C41F100019218F5
:100650005B411A4301D120F0010010BD2DE9F04D9E
:1006600092469B4611B1B1FA81F202E0B0FA80F2F3
:1006700020329046FFF7C6FD04460F4640EA0A00C6
:1006800041EA0B0153465A46084313D0114653EA38
:10069000010019D0C8F140025046FFF789FF054616
:1006A0000E46504659464246FFF7ACFD084305D07A
:1006B000012004E020463946BDE8F08D00200543C6
:1006C00046EAE0762C4337430A986305E40AA0EB38
:1006D00008000022FD0A44EA47540A3002D50020EF
:1006E0000146E9E7010510196941DDE908450019EE
:1006F0006941BDE8F04DA2E7064C074D06E0E06811
:1007000040F0010394E8070098471034AC42F6D358
:10071000FFF75EFD300C0008500C0008054800682B
:1007200040F47000034908604FF0006001498039CF
:100730000860704788ED00E00248006800B2024996
:1007400008807047244C00401A00012010B5024672
:10075000494B1B6823F48063474C236023461B6886
:1007600043EA4203236023461B6843F4803323603B
:1007700023461B6843F00073236023461B6843F441
:100780000053236000BF3C4B14331B6803F002038B
:10079000002BF8D0384B2433196000BF364B14338C
:1007A0001B6803F00103002BF8D000BF324B143359
:1007B0001B6803F02003002BF8D02F4B1B1F1B6876
:1007C00023F001032C4C241F236000BF2A4B1B1F66
:1007D0001B6803F00103002BF8D1274B1B1F1B687C
:1007E00043F00103244C241F2360231D1B6843EAAC
:1007F0004203241D236023461B6843F48063236067
:1008000023461B6843F48033236023461B6843F46C
:100810000053236000BF184B14331B6803F004031C
:10082000002BF8D0144B20331B68D8B200BF124BFA
:1008300014331B6803F02003002BF8D00E4B1B6809
:1008400043F480430C4C2360231F1B6823F00103F7
:10085000241F236000BF084B1B1F1B6803F001030C
:10086000002BF8D1044B1B1F1B6843F00103024C03
:10087000241F236010BD00000458004010B5224B17
:100880001B6843F00073204C236023461B6823F44D
:100890008063236023461B6843EA400323602346AA
:1008A0001B6843F40033236023461B6843F4005362
:1008B000236000BF144B14331B6803F00203002BAA
:1008C000F8D0114B2433196000BF0F4B14331B6851
:1008D00003F00203002BF8D00B4B24331A6000BF47
:1008E000094B14331B6803F00103002BF8D000BF41
:1008F000054B14331B6803F02003002BF8D04FF096
:100900000073014C236010BD0458004002E008C889
:10091000121F08C1002AFAD170477047002001E079
:1009200001C1121F002AFBD1704700002DED088B7A
:10093000A548006840F00600A3490860A348006885
:1009400040F42000A14908604FF488419F4841626B
:10095000001D006840F440609C49091D0860081DA6
:10096000006840F42000091D08609948C06840F400
:10097000A0009749C8609748006840F42000954956
:1009800008604FF40841934841628F481030006876
:1009900040F400208C491031086040F283608E4999
:1009A00008608D480C38006840F02C008A490C39EA
:1009B00008600846006840F0010008603420002804
:1009C0000DDB00BF00BF00F01F0201219140420972
:1009D000920002F1E022C2F8001100BF00BF00BF88
:1009E00079481030006840F4800077491031086081
:1009F0007A4800687A49084378490860774810388F
:100A0000006840F0010075491039086000226B2130
:100A10006820FFF733FFD5E03B216820FFF796FE03
:100A2000000200B26F4908803C216820FFF78EFE6B
:100A30006C49B1F9001008436A4908803D216820DB
:100A4000FFF784FE000200B2674908803E2168205B
:100A5000FFF77CFE6449B1F9001008436249088041
:100A60003F216820FFF772FE000200B25F49088054
:100A700040216820FFF76AFE5C49B1F90010084385
:100A80005A4908805748B0F90000FFF764FD41EC6F
:100A90001B0B9FED570B53EC102BFFF77BFC41EC2E
:100AA0001A0B9FED550B53EC102BFFF7E5FC41ECB7
:100AB000190B9FED530B53EC102BFFF76BFC41EC24
:100AC000180BFFF759FD504908604748B0F900007E
:100AD000FFF741FD41EC1B0B9FED450B53EC102B39
:100AE000FFF758FC41EC1A0B9FED430B53EC102B16
:100AF000FFF7C2FC41EC190B9FED410B53EC102B9F
:100B0000FFF748FC41EC180BFFF736FD3F49086042
:100B10003648B0F90000FFF71EFD41EC1B0B9FEDBE
:100B2000340B53EC102BFFF735FC41EC1A0B9FED07
:100B3000320B53EC102BFFF79FFC41EC190B9FED90
:100B4000300B53EC102BFFF725FC41EC180BFFF793
:100B500013FD2F49086042216820FFF7F7FD044686
:100B600041216820FFF7F2FD44EA002000B2294944
:100B700008800846B0F90000FFF7EDFC41EC1A0BC5
:100B80009FED250B53EC102BFFF776FC41EC190B76
:100B90009FED230B53EC102BFFF755FB41EC180B8B
:100BA000FFF7EAFC20490860084690ED000AF2EEE3
:100BB000040A20EE200ABDEEC00A10EE100A00B2B0
:100BC0001A49088028E7000030380240000402403B
:100BD00000000240000802400C4C00401058004049
:100BE0000402200000000120020001200400012076
:100BF000000000000000004000000000C0FFDF40D7
:100C000005A3923A019D2340080001200C00012019
:100C10001000012006000120000000000040754087
:100C2000A4703D0AD743424014000120180001205F
:100C3000500C000800000120240000000C090008EE
:100C4000740C000824000120040400001C090008A2
:100C50000000000000000000000000000000000094
:100C60000000000000000000000000000000000084
:040C70000000000080
:04000005080001E10D
:00000001FF
